:100000008A11FD2F8A11CD2E8A11E62E8A11EC2E2F
:100010008A11F22E8A110B2F8A11112F8A11282F83
:100020008A11422F8A11422F00308A000408840A64
:0C00300082070034003400340134003436
:100CBC008312031385018601870108000730831214
:100CCC000313A000200885040B30A2002630A100DD
:100CDC006630A000A00B702EA10B702EA20B702EF4
:100CEC00772E383083120313A000200885040B30B4
:100CFC00A2002630A1006630A000A00B832EA10B11
:100D0C00832EA20B832E8A2E0730831203138700A7
:100D1C000B30A2002630A1006630A000A00B942E50
:100D2C00A10B942EA20B942E9B2E16308312031320
:100D3C0086000B30A2002630A1006630A000A00B6C
:100D4C00A52EA10BA52EA20BA52EAC2E08000B13C5
:100D5C008B13043083120313AA000030AB00A801DC
:100D6C00A901AC01AD0183160313061486160511F7
:100D7C0005108510851285110512071107108710B3
:100D8C008610061106128A1164268A114A2F2C032A
:100D9C002D04031DDE2E0730A300230885048230AA
:100DAC00A400DD30A300A30BD92EA40BD92EDE2E6C
:100DBC0023308312031385000130870002303E2F4D
:100DCC0033308500043087000230492F31308500E4
:100DDC00043087001030492F2C032D04031D032FE2
:100DEC003830A300230885048230A400DD30A30032
:100DFC00A30BFE2EA40BFE2E032F1930831203130C
:100E0C0085000630870010303E2F1C3085000630E0
:100E1C0087001430492F2C032D04031D202F07307D
:100E2C0087008230A400DD30A300A30B1B2FA40B82
:100E3C001B2F202F0C3083120313850003308700E7
:100E4C0014303E2F0E308500033087002C032D0408
:100E5C00031D3B2F163086008230A400DD30A3002A
:100E6C00A30B362FA40B362F3B2F06308312031304
:100E7C008600AC01AD014A2F2630A300230885045F
:100E8C000130870006308600033084008A1114205C
:100E9C008A1183120313A3008A1114208A11A4004F
:100EAC0006080139A500A60124082606031D602F9B
:100EBC0023082506031D792F033084008A11142082
:100ECC008A11A8008A1114208A11A9000330A500E8
:100EDC008A30A4005630A300A30B722FA40B722FE0
:100EEC00A50B722F792F83120313280829040319D9
:100EFC004A2F033084008A1114208A11A3008A110E
:100F0C0014208A11A40006080139A500A6012408A2
:100F1C002606031D932F23082506031DAD2FAA01BA
:100F2C00AB010330A5008A30A4005630A300A30BFC
:100F3C009D2FA40B9D2FA50B9D2FA42F8A115E26F0
:100F4C008A11013083120313AC000030AD00033062
:100F5C0084008A1114208A11A3008A1114208A118A
:100F6C00A400060EA500250C0139A600A701240833
:100F7C002706031DC32F23082606031DE92F013066
:100F8C00AA070318AB0A0030AB070330A5008A3060
:100F9C00A4005630A300A30BD12FA40BD12FA50B6B
:100FAC00D12FD82F831203132B08803AFF008030E7
:100FBC007F02031DE32F09302A02031CE92F831241
:100FCC000313AA01AB01831203132B08003A031974
:100FDC00F02F4A2F2A0884000930040203184A2FE4
:100FEC0000308A000310040D023E82004A2F830158
:040FFC008A11AD2E7B
:02400E00B9FFF8
:00000001FF
