:100000008A11FD2F8A11222F8A113C2F8A114C2F21
:100010008A11572F8A11742F8A11852F8A11A22FC6
:100020008A11C42F8A11D42F00308A000408840A50
:0C00300082070034003400340134003436
:100D2E008312031385018601870108000B138B13B1
:100D3E00043083120313A7000030A800A501A601FA
:100D4E0083160313061486160511051085108512D9
:100D5E00851105120711071087108610061106124D
:100D6E00B92EB92E033084008A1114208A118312F1
:100D7E000313A0008A1114208A11A100060801395C
:100D8E00A200A30121082306031DCF2E2008220650
:100D9E00031DD22ED32EDE2E033084008A11142092
:100DAE008A11A5008A1114208A11A600DE2E2608AB
:100DBE0025040319E32EE42EB92EE52E033084000C
:100DCE008A1114208A11A0008A1114208A11A10000
:100DDE0006080139A200A30121082306031DF92EDE
:100DEE0020082206031DFC2EFD2E002FA701A801B0
:100DFE00002F033084008A1114208A11A0008A115A
:100E0E0014208A11A100060EA200220C0139A300A3
:100E1E00A40121082406031D162F20082306031DF6
:100E2E00192F1A2FE62F0130A7070318A80A003032
:100E3E00A807E62FE62F0730A000200885040D3006
:100E4E00A100FB30A000A00B2A2FA10B2A2F2F2FC1
:100E5E00033083120313A00020088504851607149F
:100E6E0086148A1197268A11B92E03308312031322
:100E7E00A000200885043030A00020088504071546
:100E8E0086148A1197268A11B92E05143030A000C7
:100E9E0020088504071506168A1197268A11B92E81
:100EAE0005143830A000200885040D30A100FB3059
:100EBE00A000A00B602FA10B602F652F183083129E
:100ECE000313A000200885040630A0002008870424
:100EDE0006168A1197268A11B92E05151830A0000C
:100EEE00200885040630A000200887041430A000D6
:100EFE00200886048A1197268A11B92E05158515A4
:100F0E000730A000200887040D30A100FB30A000A0
:100F1E00A00B8F2FA10B8F2F942F0330831203134F
:100F2E00A000200887041430A000200886048A112F
:100F3E0097268A11B92E063083120313A0002008BB
:100F4E00850485150330A000200887041630A00004
:100F5E00200886040D30A100FB30A000A00BB52F99
:100F6E00A10BB52FBA2F063083120313A000200851
:100F7E0086048A1197268A11B92E0630831203131E
:100F8E00A00020088504851607140630A00020084E
:100F9E0086048A1197268A11B92E063083120313FE
:100FAE00A00020088504851607140630A00020082E
:100FBE0086048A1197268A11B92EB92EB92E83125C
:100FCE0003132808003A0319ED2FB92E27088400C1
:100FDE00093004020318B92E00308A000310040DE4
:100FEE00023E8200B92EB92E8A11002883018A1181
:020FFE009D2E26
:02400E00F9FFB8
:00000001FF
