:100000008A11FD2F8A11C72E8A11EC2E8A11052F15
:100010008A111B2F8A11432F8A115F2F8A11872F74
:100020008A11B22F8A11CB2F00308A000408840A6B
:0C00300082070034003400340134003436
:100C3A008312031385018601870108000B138B13A6
:100C4A00043083120313A7000030A800A501A601EF
:100C5A0083160313061486160511051085108512CE
:100C6A008511051207110710871086100611061242
:100C7A003F2E3F2E033084008A1114208A118312DA
:100C8A000313A0008A1114208A11A1000608013951
:100C9A00A200A30121082306031D552E20082206BF
:100CAA00031D582E592E6D2E033084008A111420EC
:100CBA008A11A5008A1114208A11A6004130A100C8
:100CCA00EE30A000A00B672EA10B672E00006D2E40
:100CDA0083120313260825040319742E752E3F2E3A
:100CEA00762E033084008A1114208A11A0008A11FA
:100CFA0014208A11A10006080139A200A3012108C3
:100D0A002306031D8A2E20082206031D8D2E8E2EF1
:100D1A009A2EA701A8014130A100EE30A000A00B35
:100D2A00942EA10B942E00009A2E033084008A116F
:100D3A0014208A1183120313A0008A1114208A1125
:100D4A00A100060EA200220C0139A300A401210869
:100D5A002406031DB22E20082306031DB52EB62E27
:100D6A00E62F0130A7070318A80A0030A807413068
:100D7A00A100EE30A000A00BC02EA10BC02E0000D7
:100D8A00E62FE62F8A111D268A11073083120313D4
:100D9A00A000200885040D30A100FB30A000A00BA4
:100DAA00D42EA10BD42ED92E033083120313A00004
:100DBA00200885048516071486148230A100DD30C8
:100DCA00A000A00BE62EA10BE62EEB2E3F2E8A11D9
:100DDA001D268A11033083120313A00020088504FC
:100DEA003030A00020088504071586148230A1003F
:100DFA00DD30A000A00BFF2EA10BFF2E042F3F2EEB
:100E0A008A111D268A118312031305143030A0009B
:100E1A0020088504071506168230A100DD30A000DF
:100E2A00A00B152FA10B152F1A2F3F2E8A111D2645
:100E3A008A118312031305143830A0002008850490
:100E4A000D30A100FB30A000A00B292FA10B292FE8
:100E5A002E2F183083120313A000200885040630B1
:100E6A00A0002008870406168230A100DD30A00009
:100E7A00A00B3D2FA10B3D2F422F3F2E8A111D267D
:100E8A008A118312031305151830A000200885045F
:100E9A000630A000200887041430A0002008860429
:100EAA008230A100DD30A000A00B592FA10B592FD1
:100EBA005E2F3F2E8A111D268A11831203130515F0
:100ECA0085150730A000200887040D30A100FB30EB
:100EDA00A000A00B6E2FA10B6E2F732F033083126D
:100EEA000313A000200887041430A00020088604F9
:100EFA008230A100DD30A000A00B812FA10B812F31
:100F0A00862F3F2E8A111D268A110630831203135B
:100F1A00A0002008850485150330A0002008870456
:100F2A001630A000200886040D30A100FB30A00076
:100F3A00A00B9D2FA10B9D2FA22F06308312031306
:100F4A00A000200886048230A100DD30A000A00B9A
:100F5A00AC2FA10BAC2FB12F3F2E8A111D268A115F
:100F6A00063083120313A00020088504851607148F
:100F7A000630A000200886048230A100DD30A000DF
:100F8A00A00BC52FA10BC52FCA2F3F2E8A111D26D4
:100F9A008A11063083120313A000200885048516DF
:100FAA0007140630A000200886048230A100DD3034
:100FBA00A000A00BDE2FA10BDE2FE32F3F2E3F2E2A
:100FCA003F2E831203132808003A0319ED2F3F2EF0
:100FDA00270884000930040203183F2E00308A00D3
:100FEA000310040D023E82003F2E3F2E8A11002874
:060FFA0083018A11232E81
:02400E00F9FFB8
:00000001FF
