:100000008A11FD2F8A11352E8A11682E8A11732EBE
:100010008A117D2E8A11B52E8A11C22E8A11FA2ECE
:100020008A11362F8A11412F00308A000408840A71
:0C00300082070034003400340134003436
:100C0C008312031385018601870108002F3083129C
:100C1C0003138500163086000F30870008000B1375
:100C2C008B13043083120313A7000030A800A50116
:100C3C00A601A901AA018316031306148616051131
:100C4C000510851085128511871107110710871063
:100C5C008610061106128A110C268A11482F8A1149
:100C6C0006268A1123308312031385000714861479
:100C7C0029032A04031D312F273085006830A10079
:100C8C00E430A000A00B482EA10B482E0000203011
:100C9C008312031385006830A100E430A000A00B80
:100CAC00552EA10B552E00002730831203138500FF
:100CBC006830A100E430A000A00B622EA10B622EC4
:100CCC000000312F8A1106268A1133308312031348
:100CDC008500871507158614482F8A1106268A1158
:100CEC00213083120313850087150715C02E8A1136
:100CFC0006268A1109308312031385008715871481
:100D0C000715061629032A04031D312F29308500E7
:100D1C0087156830A100E430A000A00B932EA10B26
:100D2C00932E000001308312031385008711683065
:100D3C00A100E430A000A00BA12EA10BA12E00005D
:100D4C00293083120313850087156830A100E43025
:100D5C00A000A00BAF2EA10BAF2E0000312F8A11DB
:100D6C0006268A110C30831203138500871587140D
:100D7C00071506150616482F8A1106268A110C30FF
:100D8C00831203138500871407140615061629030E
:100D9C002A04031D312F0714871407156830A1008E
:100DAC00E430A000A00BD82EA10BD82E000083128B
:100DBC0003130710871007116830A100E430A0005E
:100DCC00A00BE62EA10BE62E0000831203130714D2
:100DDC00871407156830A100E430A000A00BF42E96
:100DEC00A10BF42E0000312F8A1106268A110E3029
:100DFC008312031385008714071486140615290320
:100E0C002A04031D312F8614061506166830A1001E
:100E1C00E430A000A00B102FA10B102F00008312A8
:100E2C0003130610061106126830A100E430A0006E
:100E3C00A00B1E2FA10B1E2F000083120313861470
:100E4C00061506166830A100E430A000A00B2C2F6C
:100E5C00A10B2C2F000083120313A901AA01482F08
:100E6C008A1106268A112630831203138500071473
:100E7C0086140615482FA701A801482F0430A70097
:100E8C000030A800033084008A1114208A118312C8
:100E9C000313A0008A1114208A11A100060801393D
:100EAC00A200A30121082306031D5E2F20082206A1
:100EBC00031D772F033084008A1114208A11A5009A
:100ECC008A1114208A11A6000330A2008A30A100D6
:100EDC005630A000A00B702FA10B702FA20B702FFF
:100EEC00772F83120313250826040319482F033088
:100EFC0084008A1114208A11A0008A1114208A11EE
:100F0C00A10006080139A200A30121082306031D34
:100F1C00912F20082206031DA72F0430A7000030B4
:100F2C00A8000330A2008A30A1005630A000A00B0C
:100F3C009D2FA10B9D2FA20B9D2FA42F8A1106264E
:100F4C008A11033084008A1114208A11831203132E
:100F5C00A0008A1114208A11A100060EA200220CF6
:100F6C000139A300A40121082406031DBF2F20086A
:100F7C002306031DE92F0130A7070318A80A003028
:100F8C00A8070130A9000030AA000330A2008A3063
:100F9C00A1005630A000A00BD12FA10BD12FA20B7A
:100FAC00D12FD82F831203132808803AFF008030EA
:100FBC007F02031DE32F09302702031CE92F831244
:100FCC000313A701A801831203132808003A03197D
:100FDC00F02F442F27088400093004020318442FF3
:100FEC0000308A000310040D023E8200482F83015A
:040FFC008A11152E13
:02400E00B9FFF8
:00000001FF
