:100000008A11FD2F8A119F2F8A11A72F8A11AE2FD7
:100010008A11B42F8A11BD2F8A11C52F8A11CE2FB4
:100020008A11D82F8A11DF2F00308A000408840A31
:0C00300082070034003400340134003436
:100E36000B138B13043083120313A7000030A80092
:100E4600A501A601831603130614861605110510BF
:100E56008510851285110512071107108710861057
:100E660006110612372F372F033084008A111420FB
:100E76008A118312A0008A1114208A11A100060883
:100E86000139A200A30121082306031D4C2F2008C7
:100E96002206031D4F2F502F5B2F033084008A112B
:100EA60014208A11A5008A1114208A11A6005B2F2E
:100EB600260825040319602F612F372F622F033070
:100EC60084008A1114208A11A0008A1114208A1124
:100ED600A10006080139A200A30121082306031D6B
:100EE600762F20082206031D792F7A2F7D2FA70142
:100EF600A8017D2F033084008A1114208A11A000D6
:100F06008A1114208A11A100060EA200220C0139B2
:100F1600A300A40121082406031D932F20082306FD
:100F2600031D962F972FE82F0130A7070318A80A4D
:100F36000030A807E82FE82F07308500033085002A
:100F4600851607148614372F033085003030850048
:100F560007158614372F0514303085000715061639
:100F6600372F051438308500183085000630870085
:100F76000616372F05151830850006308700143001
:100F86008600372F05158515073087000330870043
:100F960014308600372F063085008515033087000C
:100FA6001630860006308600372F063085008516F7
:100FB600071406308600372F06308500851607147D
:100FC60006308600372F372F372F2808003A0319A7
:100FD600ED2F372F27088400093004020318372F16
:100FE60000308A000310040D023E8200372F372F8F
:0A0FF6008A11002883018A111B2FC5
:02400E00F9FFB8
:00000001FF
